:020000040800F2
:10000000500900209D010008C70A0008A106000849
:10001000C50A000809020008C91200080000000013
:100020000000000000000000000000001D0D00089E
:100030004D02000800000000C90A00087111000804
:10004000B7010008B7010008B7010008B7010008B0
:10005000B7010008B7010008B7010008B7010008A0
:10006000B7010008B7010008B7010008B701000890
:10007000B7010008B7010008B7010008B701000880
:10008000B7010008B7010008B7010008B701000870
:10009000B7010008B7010008B7010008B701000860
:1000A000B7010008B7010008B7010008B701000850
:1000B000B7010008B7010008B7010008B701000840
:1000C000B7010008B7010008B7010008B701000830
:1000D000B7010008B7010008B7010008B701000820
:1000E000B7010008B7010008B7010008B701000810
:1000F000B7010008B7010008B7010008B701000800
:10010000B7010008B7010008B7010008B7010008EF
:10011000B7010008B7010008B7010008B7010008DF
:10012000B7010008B7010008B7010008B7010008CF
:10013000B7010008B7010008B7010008B7010008BF
:10014000B7010008B7010008B7010008B7010008AF
:10015000B7010008B7010008B7010008B70100089F
:10016000B7010008B7010008B7010008B70100088F
:10017000B7010008B7010008B7010008B70100087F
:10018000B7010008B7010008DFF80CD000F02AF82A
:1001900000480047391700085009002006488047EA
:1001A00006480047FEE7FEE7FEE7FEE7FEE7FEE75C
:1001B000FEE7FEE7FEE7FEE775110008890100088B
:1001C00040EA01039B0703D009E008C9121F08C0D9
:1001D000042AFAD203E011F8013B00F8013B521E59
:1001E000F9D27047064C074D06E0E06840F0010385
:1001F00094E8070098471034AC42F6D3FFF7C8FFE5
:10020000BC190008DC190008FEE7000000220144C8
:1002100003E000BF10F8013B1A448842FAD3D0B281
:100220007047000030B504460020651804E000BFA8
:1002300014F8011B01F038F8AC42F9D3002101F0A9
:1002400033F8BDE83040002101F02EB87047A0F12E
:100250000A015A2901D2C01C02E0642801D31E30D1
:1002600080B2002106E00022521CD2B2192AFBD330
:10027000491C89B28142F6D37047000001490860E9
:10028000704700000C3C024070B50646002529B1BD
:10029000012927D0022928D04FF4407500F022F917
:1002A00008281ED1124C206820F44070206020687D
:1002B00028432060206820F0F8002060206846F085
:1002C000020108432060206840F48030206000F084
:1002D00009F9216821F002012160216821F0F8016B
:1002E000216070BD4FF48075D8E74FF40075D5E7F5
:1002F000103C02400B4908200A68D20301D50120B6
:1003000070470A68D20601D5052070470A6812F0C6
:10031000EF0F01D00620704709688907FBD5072039
:10032000704700000C3C024008B5082002200090F5
:100330000B4800F057F9C10801208840C0F58050F3
:10034000009000F07BF80021009800F089F800F0A0
:100350006BF8082801D0022008BD012008BD00006C
:100360000000020810B5094800F03CF9044608E016
:1003700002212046FFF788FF082801D0012010BD88
:100380000834582CF4D9002010BD000000000208E9
:1003900010B5094800F026F9044600F03FF8014680
:1003A000E008C14040F6FF72C240914201D10120F5
:1003B00010BD002010BD00000000020810B500F0C4
:1003C0007FF8BDE81040F320FFF758BF2DE9F0415A
:1003D00016468846054600240F4F15E058F82410AD
:1003E000286800F04FF8082802D00120BDE8F0810D
:1003F0002868016858F82400814201D00220F5E7FE
:100400002868001D2860641CB44202D22868B842E3
:10041000E4D90020EAE70000FBFF07080148008854
:1004200070470000163C02400348017841F0020189
:10043000017000F057B80000143C02400548006805
:10044000C00705D0034804490C3801600349016026
:1004500070470000143C02403B2A19087F6E5D4C37
:1004600030B50D46044600F03DF8082806D1044892
:1004700001880DB1A14300E02143018030BD00009F
:10048000163C024070B50D46064600F02BF80828D1
:1004900013D10A4C206820F440702060206840F49A
:1004A00000702060206840F001002060356000F09E
:1004B00019F8216821F00101216070BD103C024053
:1004C00005480068002805DA034804490C38016033
:1004D0000349016070470000103C0240230167455A
:1004E000AB89EFCD08B508208DF80000FFF702FFBB
:1004F0008DF800009DF800000128F7D09DF800005D
:1005000008BDF0B50023012403270D6804FA03F2A7
:100510001540954242D1D0F800C05E0007FA06F5BA
:100520002CEA050CC0F800C091F804C0D0F800E037
:100530000CFA06FC4CEA0E0CC0F800C091F804C09E
:10054000BCF1010F02D0BCF1020F1FD1D0F808C0DE
:100550002CEA050CC0F808C091F805C0D0F808E0F6
:100560000CFA06FC4CEA0E0CC0F808C0D0F804C027
:100570002CEA020CC0F804C0426891F806C00CFADC
:1005800003FC1FFA8CFC42EA0C024260C268AA43D8
:10059000C260CA79C568B2402A43C2605B1C102B96
:1005A000B3D3F0BD4B07DB0E9A40C90810B500EB82
:1005B0008100016A0F249C40A1430162016A11433A
:1005C000016210BD418370470183704708B5002068
:1005D0008DF80000684600F075FC0028FAD09DF800
:1005E000000008BD0021A0F100634FF48042934257
:1005F0003FD321490144914201D2082139E01F49EA
:100600000144914201D2102133E01D49014491423D
:1006100001D218212DE01B490144B1F5803F01D2E0
:10062000202126E0184942184FF400318A4201D2B5
:1006300028211EE0154A02448A4201D2302118E0E6
:10064000134A02448A4201D2382112E0114A02447C
:100650008A4201D240210CE00F4A02448A4201D270
:10066000482106E00D4A1044884201D2502100E0A2
:10067000582108467047000000C0FFF70080FFF7D0
:100680000040FFF70000FFF70000FEF70000FCF756
:100690000000FAF70000F8F70000F6F70000F4F7A2
:1006A000FEE70000F0B587B0002401210094084661
:1006B000019400F00BFA0121022000F007FA41F644
:1006C0003060009001208DF804008DF806401C4E2B
:1006D0008DF807408DF8054069463046FFF711FF59
:1006E000184F4FF40045694638460095FFF709FF5B
:1006F00029463846FFF766FFA9113046FFF762FF2B
:1007000069113046FFF75EFF29113046FFF75AFFA7
:10071000E9103046FFF756FF4FF416500290ADF83F
:1007200010400C20ADF80C40ADF81200ADF80E40B2
:10073000ADF8144002A9002000F090FA07B0F0BD17
:100740000000024000040240F0B500220D4B1546A7
:1007500014460A27B1FBF3F630368654B1FBF3F6A4
:1007600003FB1611B3FBF7F3521C861816F8016C45
:10077000302E00D125B16D1C641C0A2CEAD3F0BDCB
:100780000022F9E700CA9A3B334800F02DFC3348B9
:1007900000F02AFC324800F027FC324800F024FC2C
:1007A0002F4800F021FC304800F01EFC2A4800F0E1
:1007B0001BFC2EA000F018FCFFF7EAFD2D4C0025D5
:1007C00010B90120206000E025602BA000F00CFC97
:1007D00039A000F009FC48A000F006FC56A000F08B
:1007E00003FC206810B164A000F0FEFB72A000F0D2
:1007F000FBFBFFF7EBFE312806D0322807D0332869
:1008000008D034280FD011E000F08AFADDE700F0BC
:1008100091FBDAE778494868A0606060096881F375
:1008200008888047D1E72068012806D02068002882
:100830000FD072A000F0D8FBC7E7FFF775FD0128C5
:1008400003D00228C1D17DA0F4E787A000F0CCFB43
:10085000BAE78DA0EEE70000701900088C180008B8
:100860004018000824190008D81800080D0A0D0ABD
:1008700000000000040000200D0A3D3D3D3D3D3DCF
:100880003D3D3D3D3D3D3D3D3D3D3D3D204D616955
:100890006E204D656E75203D3D3D3D3D3D3D3D3DF0
:1008A0003D3D3D3D3D3D3D3D3D3D3D3D3D3D3D3D78
:1008B0003D3D3D0D0A0A00002020446F776E6C6FAD
:1008C000616420496D61676520546F2074686520FC
:1008D00053544D33324634787820496E7465726EC5
:1008E000616C20466C617368202D2D2D2D2D2D2DD2
:1008F00020310D0A0A000000202055706C6F6164E1
:1009000020496D6167652046726F6D2074686520AF
:1009100053544D33324634787820496E7465726E84
:10092000616C20466C617368202D2D2D2D2D2D2D91
:1009300020320D0A0A000000202045786563757496
:100940006520546865204E65772050726F6772612C
:100950006D202D2D2D2D2D2D2D2D2D2D2D2D2D2D94
:100960002D2D2D2D2D2D2D2D2D2D2D2D2D2D2D2DB7
:1009700020330D0A0A000000202044697361626C74
:1009800065207468652077726974652070726F7471
:10099000656374696F6E202D2D2D2D2D2D2D2D2D20
:1009A0002D2D2D2D2D2D2D2D2D2D2D2D2D2D2D2D77
:1009B00020340D0A0A0000003D3D3D3D3D3D3D3DDA
:1009C0003D3D3D3D3D3D3D3D3D3D3D3D3D3D3D3D57
:1009D0003D3D3D3D3D3D3D3D3D3D3D3D3D3D3D3D47
:1009E0003D3D3D3D3D3D3D3D3D3D3D3D3D3D3D3D37
:1009F0003D3D0D0A0A00000000000208496E7661C4
:100A00006C6964204E756D6265722021203D3D3E0B
:100A100020546865206E756D6265722073686F750D
:100A20006C642062652065697468657220312C20D1
:100A3000322C2033206F7220340D00004572726F0B
:100A4000723A20466C61736820777269746520750C
:100A50006E70726F74656374696F6E206661696C25
:100A600065642E2E2E0D0A0057726974652050722F
:100A70006F74656374696F6E2064697361626C651D
:100A8000642E2E2E0D0A0000496E76616C6964207A
:100A90004E756D6265722021203D3D3E2054686593
:100AA000206E756D6265722073686F756C6420626C
:100AB000652065697468657220312C2032206F7260
:100AC00020330D00FEE7704770470000044A0029FC
:100AD000116801D0014300E08143116070470000BC
:100AE00030380240044A0029116801D0014300E077
:100AF00081431160704700004038024030B51C4A05
:100B000011681C4B11F00C0103D0042901D00829F5
:100B100001D0036013E01649091F0C680C6804F04B
:100B20003F04B3FBF4F30C680968C4F3881463430F
:100B3000C1F30141491C4900B3FBF1F101601168A7
:100B40000F2303EA11110C4B5C5C0168E14041602A
:100B50001468072505EA94241C5D21FA04F48460D6
:100B6000126805EA52329A5CD140C16030BD000083
:100B7000083802400024F4003C00002070B50C4608
:100B8000054604E0284600F09DF9012804D0641EC3
:100B9000F8D24FF0FF3070BD002070BD2DE9F84F46
:100BA000884600210646C8F800109246114668465D
:100BB000FFF7E4FF4FF0FF39A8BB9DF800001828AD
:100BC00025D006DC012809D0022809D004283CD110
:100BD0000CE0412828D0612837D125E0802401E0AD
:100BE0004FF4806401253070671D26E00221082043
:100BF000FFF74AFB082828D1174C00212046FFF7B1
:100C000041FC082821D1206868B9BDE8F88F514619
:100C10006846FFF7B3FF30B99DF80000182814D1DB
:100C2000C8F8009015E010E00120EEE77019514679
:100C3000FFF7A4FF48B96D1CADB2BD42F6D3B17841
:100C4000707881F0FF01884201D04846DDE7C8F89E
:100C500000400020D9E70000004C00082DE9FC41CD
:100C6000884604462B492B48091D50F8240051F8AA
:100C7000241008430121FFF729FF2CB92548012141
:100C8000001F0068FFF72EFF2248234E083810F897
:100C90001420001F30F8141056F82400FFF782FCCF
:100CA0001C48371D801F10F81420001F30F8141046
:100CB00057F82400FFF776FC00208DF8060001208D
:100CC0008DF807001348022510388DF8045030F8CD
:100CD000140000908DF8055056F824006946FFF77F
:100CE00010FC0C488DF804500E38694630F814009A
:100CF000009057F82400FFF704FC351F414655F8D3
:100D0000240000F077FA55F82400012100F060FA81
:100D1000BDE8FC81A0170008140000207047000007
:100D20003EB520A207CA8DE8070021A000F05CF9BB
:100D30002E4800F021FB041E24DD2D4800F054F95C
:100D40002C4800F051F921466846FFF7FDFC2AA027
:100D500000F04AF9684600F047F92AA000F044F98B
:100D60002BA000F041F9012080F31388BFF34F8FCF
:100D70002D4801682D4A01F4E06111430160BFF381
:100D80004F8FFEE7601C05D0A01C05D0E41C07D0E7
:100D900027A002E02EA000E03DA000F025F93EBD16
:100DA00042A0FAE720202020202020202020000040
:100DB00057616974696E6720666F72207468652078
:100DC00066696C6520746F2062652073656E74209F
:100DD0002E2E2E20287072657373202761272074B1
:100DE0006F2061626F7274290A0D00004C000020B0
:100DF000EC1700084C0400200A0D2053697A653A6C
:100E0000200000002042797465730D0A0000000084
:100E10002D2D2D2D2D2D2D2D2D2D2D2D2D2D2D2D02
:100E20002D2D2D0A000000000CED00E00400FA0555
:100E30000A0D4661696C656420746F207265636594
:100E4000697665207468652066696C65210A0D0005
:100E50000A0A0D54686520696D6167652073697AB7
:100E60006520697320686967686572207468616EBF
:100E70002074686520616C6C6F77656420737061A5
:100E80006365206D656D6F7279210A0D00000000A9
:100E90000A0A0D566572696669636174696F6E202E
:100EA0006661696C6564210A0D0000000D0A0A4143
:100EB000626F7274656420627920757365722E0AA0
:100EC0000D00000010B504462021054800F08AF905
:100ED000002804D00248001D00882070012010BDA9
:100EE0000044004070B5114C054620212046FFF714
:100EF0006BFB10212046FFF767FB29460C4D284667
:100F000000F0CEF98021284600F06CF90028F9D0D5
:100F10004FF4FA60FFF79BF920212046FFF752FBC0
:100F20002046BDE870401021FFF74CBB0000024096
:100F30000044004010B50BA000F056F8FFF746FB48
:100F400043280DD14FF4C0220DA1134800F0E0FA60
:100F500008B112A000E01CA0BDE8104000F044B8A9
:100F600010BD00000A0A0D53656C6563742052655C
:100F700063656976652046696C650A0D00000000AE
:100F800055706C6F61646564466C617368496D612E
:100F900067652E62696E0000000002080A0D457246
:100FA000726F72204F63637572726564207768692F
:100FB0006C65205472616E736D697474696E67201C
:100FC00046696C650A0D00000A0D46696C6520755E
:100FD000706C6F61646564207375636365737366B9
:100FE000756C6C79200A0D0010B5044603E000BF53
:100FF000FFF778FF641C20780028F9D110BD0000AD
:101000000CB500202749019000900A6842F4803214
:101010000A604FF4A0630A6802F400320092019A59
:10102000521C0192009A12B9019A9A42F3D10A68AD
:10103000920334D5012000901A484030026842F0F3
:10104000805202601848026842F4804202601548EB
:10105000083002680260026842F4004202600268DE
:1010600042F4A0520260031F104A1A600A6842F05C
:1010700080720A600A689201FCD50D4A40F205614F
:101080001160016821F003010160016841F0020173
:1010900001600168C1F381010229FAD10CBD009001
:1010A0000CBD00000038024000700040082D4008D0
:1010B000003C024070B5002204781346302C04D165
:1010C0004478782C0AD0582C08D06FF02F05845C17
:1010D00074B36B2C2ED04B2C2CD030E082780AB31A
:1010E0000224025D5AB1A2F14105052D0AD9A2F1EF
:1010F0006106052E06D91135092D07D913E0012007
:101100000B6011E0A2F13006092E01D8303A04E05C
:10111000052D01D8373A00E0573A641C02EB03135F
:101120000B2CDED302E000200B2C00D3002070BD7E
:101130000B6002E01AB1980207E0012015E06D2C67
:1011400001D04D2C03D112B118050860F5E7A4F1C8
:101150003006092E08D803EB830305EB4303521C2A
:1011600023440B2AB3D3E1E700200B2ADED270BD63
:1011700070470000124810B5016841F47001016029
:101180001048016841F0010101600E4A0021083257
:10119000116002680C4B1A400260031D0B4A1A6072
:1011A000026822F48022026006480C300160FFF7DA
:1011B00027FF03494FF000608039086010BD000030
:1011C00088ED00E000380240FFFFF6FE10300024FA
:1011D0000029818902D041F4005101E021F400513D
:1011E000818170470246002012880A4200D0012007
:1011F000704700007FB50446008A0D4620F4405138
:10120000E88808432082A08941F20C618843A988BC
:101210002A8911436A8902431143A181A08A20F4DB
:101220004071A8890843A0826846FFF767FC1A4806
:10123000844202D01948844201D1039800E0029808
:10124000A189090400EBC00101EB0010296801D558
:10125000490000E08900B0FBF1F26420B2FBF0F13C
:1012600009010B096FF018056B4302EB8302A38998
:101270001D044FF0320306D503EBC202B2FBF0F0BF
:1012800000F0070005E003EB0212B2FBF0F000F003
:101290000F00084320817FBD001001400014014071
:1012A000C1F308018180704741F4807141F221024D
:1012B00040004900CB0500D5401CC30300D5504079
:1012C000CB03F5D580B27047FEE7FEB50546012099
:1012D000002628706E70FF20A870344603E02B199A
:1012E000641CD870A4B2085D08B1FF2CF7D9281986
:1012F000C67068461168FFF727FA0020241DA1B2C6
:101300006B4604E0401C6A54491C80B289B21A5CE6
:10131000002AF7D102E06E54491C89B28329FAD31E
:10132000FEBD70B54FF48066B34201D3344600E091
:101330008024A34200D323469DB2B44201D10223AC
:1013400000E001230B704A70D2438A700322EB1C29
:1013500004E010F8016B8E54521C92B29A42F8D3FA
:10136000A54208D81A2298B2E41C02E00A54401C94
:1013700080B2A042FAD370BD2DE9F04FADF22C4DF2
:101380004FF0000ADFF864B10446CDF808A45546D2
:10139000D0464FF480174FF0FF39CDF810B4CDF898
:1013A00014A400263A460DF20C416846FFF7F6FBFE
:1013B00098B1012875D0B8F1000F00DD6D1C052D26
:1013C00071DD1820FFF78EFD5FF01800FFF78AFD32
:1013D00000200DF22C4DBDE8F08FDDF80C24002527
:1013E0004A4507D042B19DF80100F1B288420BD0C6
:1013F000152078E00620E9E70620FFF773FDDDF809
:1014000014040028CDD05AE0BEB120460DF10301EE
:10141000FEF7D6FEDDF80C042146C0F38D020DF573
:101420008260FEF7D3FFD8B31820FFF75BFD1820CA
:10143000FFF758FD6FF00100CBE79DF8030088B37C
:1014400000212B4A0DF1030002E05354401C491CBB
:1014500003780BB1FF29F8DD02F801A000210DF59A
:101460008362401C02E05354401C491C0378202B2B
:1014700001D01029F7DB02F801A00DF581611046BB
:10148000FFF718FEDDF808046FF4C021C8420BD93D
:101490001820FFF727FD1820FFF724FD484698E79E
:1014A00010E016E008E01DE05846FEF75BFF06205E
:1014B000FFF718FD432006E00620FFF713FDDDF8D7
:1014C000080486E70620FFF70DFD4FF00108761CA3
:1014D00068E71820FFF706FD1820FFF703FD6FF0FF
:1014E000020076E74320FFF7FDFC5BE700000208FF
:1014F0004C04002070B50D460646002404E0305D23
:10150000FFF7F0FC641CA4B2AC42F8D370BD00003D
:101510002DE9F74FADF5A26D8146002420460DF56B
:1015200081620B5C1354401CC0B2FF28F9D3012721
:101530000DF5A3620DF581616846FFF7C6FE8321B4
:101540006846FFF7D7FF6D4642F2107A04E0832128
:101550006846FFF7CFFF67B18021E81CFEF762FE07
:101560000646000AFFF7BEFCF0B2FFF7BBFCA84638
:1015700006E0802108F10300FEF748FEFFF7B2FC09
:1015800051460DF5A160FFF7F9FA18B1641C0A2C59
:10159000DDD3B7E09DF808050628F8D10A2C6BD2F8
:1015A000CDF80C954FF0010BDDF818554EE000BF5B
:1015B0000BF0FF022B466946DDF80C05FFF7B1FE84
:1015C00000208DF8080506464FF48064A54200D23D
:1015D0008024E11C6846FFF78DFF214608F10300D7
:1015E00047B1FEF71FFE8146000AFFF77BFC09F0BA
:1015F000FF0001E0FEF70AFEFFF774FC45490DF518
:10160000A160FFF7BBFA18B99DF80805062803D0BA
:10161000761C0A2ED8D317E0DDF80C05A54220442D
:10162000CDF80C050DD92D1BBBF5C07F04D00BF1F7
:1016300001001FFA80FB05E0FF200DF21C5DBDE8F4
:10164000F08F00250A2E01D3F0B2F6E7002DAFD1BE
:101650008DF808552C4657460420FFF743FC3946C1
:101660000DF5A160FFF78AFA18B99DF8080506285C
:1016700003D0641C0A2CEFD344E00A2C42D2012090
:101680008DF800008DF80150FF2000248DF8020035
:101690008DF80855032046463554401CC0B28328B7
:1016A000FAD383216846FFF725FF8021F01CFEF75F
:1016B000B9FD0546000AFFF715FCE8B2FFF712FC7A
:1016C00039460DF5A160FFF759FA18B1641C0A2CD0
:1016D000E7D317E09DF808050628F8D101250A2C64
:1016E00010D20420FFF7FEFB39460DF5A160FFF78D
:1016F00045FA18B99DF80805062801D0641C1DB1EB
:101700000A2C04D3E0B298E70A2CEAD3FAE70020C7
:1017100093E70000A086010002E008C8121F08C17C
:10172000002AFAD170477047002001E001C1121F62
:10173000002AFBD170470000FEF740FE0E4800680B
:101740000E490860401C07D00D4801680D4A114041
:10175000B1F1005F05D00DE0FEF7A4FFFFF714F82C
:1017600008E04168084A1160084A1160006880F387
:1017700008888847FEE70000004C000800000020B1
:10178000000002080000F82F0C00002008000020D4
:101790000400080002000300070007000000020028
:1017A0000100000001000000010000200080010095
:1017B0000020008000000200060000000D000F0065
:1017C0000600280028004000000100028000000000
:1017D0004000000040000000000100000400000084
:1017E0000100000004000000400000000A0A0D2073
:1017F00050726F6772616D6D696E6720436F6D70B7
:101800006C65746564205375636365737366756C8A
:101810006C79210A0D2D2D2D2D2D2D2D2D2D2D2DBC
:101820002D2D2D2D2D2D2D2D2D2D2D2D2D2D2D2DE8
:101830002D2D2D2D2D0D0A204E616D653A200000B5
:101840000D0A3D20202020202020202020202020A4
:101850002020202020202020202020202020202088
:101860002020202020202020202020202020202078
:101870002020202020202020202020202020202068
:10188000202020202020203D000000000D0A3D20C7
:101890002020202020202020202020202028432914
:1018A00020434F505952494748542032303131205B
:1018B00053544D6963726F656C656374726F6E69C2
:1018C0006373202020202020202020202020202082
:1018D0002020203D000000000D0A3D202020202077
:1018E00020202020202020202020202020202020F8
:1018F000202020202020202020202020202042796D
:10190000204D4344204170706C69636174696F6E4F
:10191000205465616D202020202020202020203DA3
:10192000000000000D0A3D202053544D3332463450
:10193000787820496E2D4170706C69636174696FAD
:101940006E2050726F6772616D6D696E67204170B5
:10195000706C69636174696F6E20202856657273BC
:10196000696F6E20312E302E3029203D000000009E
:101970000D0A3D3D3D3D3D3D3D3D3D3D3D3D3D3DFA
:101980003D3D3D3D3D3D3D3D3D3D3D3D3D3D3D3D87
:101990003D3D3D3D3D3D3D3D3D3D3D3D3D3D3D3D77
:1019A0003D3D3D3D3D3D3D3D3D3D3D3D3D3D3D3D67
:1019B0003D3D3D3D3D3D3D3D00000000DC19000842
:1019C000000000204C00000018170008281A00082A
:1019D0004C00002004090000281700080000000047
:1019E0000000000000000000000000000044004073
:1019F0000000024000000240000000000018024009
:101A0000001802400020024000080240000002408E
:101A10000008024000180240000000000102030418
:081A2000010203040607080996
:040000050800018965
:00000001FF
